:0A0000000C943B000C9400000C94DB
:10000A0000000C9400000C9400000C9400000C9466
:10001A0000000C9400000C9400000C9400000C9456
:10002A0000000C9400000C9400000C9400000C9446
:10003A0000000C9400000C9400000C9400000C9436
:10004A0000000C9400000C9400001027E8036400E0
:10005A000A00010000100001100001006963373432
:10006A00313533000800600166000000F894EE277D
:10007A00ECBBF1E0FBBFEBBFE5BF8DE0A2E0BB2725
:10008A00ED938A95E9F780E094E0A0E6ED93019775
:10009A00E9F7EEE6F0E085919591009761F0A59178
:1000AA00B59105901590BF01F00105900D92019749
:1000BA00E1F7FB01F0CFEFE5EDBFE4E0EEBFC0E60C
:1000CA00D1E00C946800E0E0EBB9E8E0EAB9E6E8D0
:1000DA00E0BDE0E0E0BDE3E3E9B9E4E0E2BBE0E093
:1000EA00E1BBE4E0E2BB9198829910C0229710D05C
:1000FA00F0E0E883F983A881B981119719F4A0E6A1
:10010A00B1E0A7D0A4EFB1E0E9D02296EDCFFFCFBE
:10011A00D4D039E0E0EFEABBE0E0EBBBE0EFE4BBD0
:10012A00E0E0E5BBE2EBE1BBE4E0E2BBE7E0E7BB32
:10013A00E0E0E8BB9798AC9ADC9AAD9A00E002300E
:10014A00F4F598D011F4DE9801C0DE9A99D011F432
:10015A00DF9801C0DF9A9AD011F4949801C0949A5A
:10016A0030FD02C0959801C0959A20E013E0103046
:10017A00DCF093D011F4DD9801C0DD9A10FD02C0C5
:10018A00AE9801C0AE9ADC9891D0E0E08699E1E0A1
:10019A00EA2B2E2FDC9AAEE1B0E0A0D0869B02C0FB
:1001AA00E0E065C01150E3CFAEE1B0E097D032177E
:1001BA0011F0E0E05CC0EFE03E270F5FC0CF39E00E
:1001CA0020E000E00230DCF555D011F4AF9801C010
:1001DA00AF9A56D011F4C09801C0C09A57D011F402
:1001EA00C19801C0C19A30FD02C0C29801C0C29A2A
:1001FA0020E013E01030DCF050D011F4DD9801C09B
:10020A00DD9A10FD02C0AE9801C0AE9AAD984ED0EC
:10021A00E0E0B399E1E0EA2B2E2FAD9AAEE1B0E02F
:10022A005DD0B39B02C0E0E022C01150E3CF321789
:10023A0011F0E0E01CC0EFE03E270F5FC3CFAC989F
:10024A00E1E015C0AA935D9BFECFE881ECB9219647
:10025A00089533D09D01D9012F5F3F4FEC911E2F96
:10026A00E03019F0A12FEEDFF6CFAAE0EBDF2AD0BB
:10027A0024960895E32FE870F0E029D0E03008953D
:10028A00E32FE470F0E025D0E0300895E32FE27028
:10029A00F0E0F595E795E0300895E12FE270F0E09F
:1002AA00E7FDFFEFF595E795E0300895AEE1B0E0A0
:1002BA0015D0E22FEE0FAE2F08953A932A931A9390
:1002CA000A9308953B812A81198108810895F59539
:1002DA00E795F595E795F595E7950895109639F020
:1002EA00A89580ED97E00197F1F71197C9F708955E
:00000001FF
