:0E0000000C942A000C9400000C9400000C9448
:10000E0000000C9400000C9400000C9400000C9462
:10001E0000000C9400000C9400000C9400000C9452
:10002E0000000C9400000C9400000C9400000C9442
:10003E0000000C9400000C9400000C9400000C9432
:10004E0000000C940000F894EE27ECBBF1E0FBBF2F
:10005E00EBBFE5BF8DE0A2E0BB27ED938A95E9F7F4
:10006E0080E094E0A0E6ED930197E9F7EFE5EDBFB0
:10007E00E4E0EEBFC0E6D1E00C944500E2E0E1BB67
:10008E00E4E0E2BB919882990BC022970BD0F0E08E
:10009E00E883F983A881B981119709F4919A229680
:1000AE00F2CFFFCF1A930A9305E0E0E0EBBBE5BB7E
:1000BE00E4E0E2BBE0E0E8BBE0E7EABBE0E0EBBB9C
:1000CE00E0EFE4BBE0E0E5BBE1B3EF70E1BBE1B331
:1000DE00E06BE1BBE2B3EF70E2BBE6E0E7BBE0E072
:1000EE00E8BB9798AC9AAD9A4FD0DC9810E01230DE
:1000FE0004F553D011F4AE9801C0AE9A54D011F459
:10010E00C19801C0C19A55D011F4949801C0949A27
:10011E0000FD02C0DD9801C0DD9A52D011F0E0E082
:10012E0030C074D011F0E0E02CC0EFE00E271F5F5E
:10013E00DECF05E029D0DC9A10E0123004F52DD088
:10014E0011F4AF9801C0AF9A2ED011F4C29801C02D
:10015E00C29A2FD011F4959801C0959A00FD02C055
:10016E00DE9801C0DE9A2CD011F0E0E00AC04ED02D
:10017E0011F0E0E006C0EFE00E271F5FDECFAC9877
:10018E00E1E0099119910895DD98DE98949895987B
:10019E00AE98AF98C198C2980895E02FE870F0E03D
:1001AE005ED0E0300895E02FE470F0E05AD0E030F9
:1001BE000895E02FE270F0E0F595E795E0300895B0
:1001CE00AD98AEE1B0E052D0A0E0B099A1E0EA2F38
:1001DE00EE0FEE0FEE0F0E2EA0E0B399A1E0EA2F78
:1001EE00EE0FEE0F0E0EA0E08699A1E0EA2FEE0FB5
:1001FE00A02DAE0FE0E0CF99E1E0AE0FE02FB0E022
:10020E00A7FDBFEFF0E0EA17FB070895AD9AAEE148
:10021E00B0E02CD0A0E0B099A1E0E0E0EA17E1E078
:10022E0009F4EE270E2EA0E0B399A1E0E0E0EA1764
:10023E00E1E009F4EE270E22A0E08699A1E0E0E0CD
:10024E00EA17E1E009F4EE270E22A0E0CF99A1E033
:10025E00E0E0EA17E1E009F4EE27E0210895F595D4
:10026E00E795F595E795F595E7950895109639F08C
:10027E00A89580ED97E00197F1F71197C9F70895CA
:00000001FF
