:0E0000000C946E000C9400000C9400000C9404
:10000E0000000C9400000C9400000C9400000C9462
:10001E0000000C9400000C9400000C9400000C9452
:10002E0000000C9400000C9400000C9400000C9442
:10003E0000000C9400000C9400000C9400000C9432
:10004E0000000C9400001027E80364000A00010071
:10005E0000100001100001004943203734313533C0
:10006E000D0049432037343135350D0049432037D3
:10007E00343135360D0049432037343135370D00D4
:10008E0049432037343135380D0049432037343158
:10009E0035340D004E6F7420446566696E65640DCF
:1000AE0000000A00600166000A006A0170000A0082
:1000BE0074017A000A007E0184000A0088018E0015
:1000CE000A00920198000D009C01A2000000F89415
:1000DE00EE27ECBBF1E0FBBFEBBFE5BF8DE0A2E08E
:1000EE00BB27ED938A95E9F780E094E0A0E6ED93C7
:1000FE000197E9F7E0EBF0E085919591009761F0BB
:10010E00A591B59105901590BF01F00105900D9246
:10011E000197E1F7FB01F0CFEFE5EDBFE4E0EEBFB5
:10012E00C0E6D1E00C949B00E0E0EBB9E8E0EAB960
:10013E00E6E8E0BDE0E0E0BDE3E3E9B9E4E0E2BB20
:10014E00829904C005D0A4EFB1E060D4F9CFFFCFFF
:10015E001A9310E02ED01E2F113019F4A0E6B1E044
:10016E0025C0BAD01E2F113019F4AAE6B1E01EC078
:10017E00EAD01E2F113019F4A4E7B1E017C01FD139
:10018E001E2F113019F4AEE7B1E010C063D11E2F4F
:10019E00113019F4A8E8B1E009C0ABD11E2F11300F
:1001AE0019F4A2E9B1E002C0ACE9B1E043D2199171
:1001BE00089500D439E0E0EF4ED2E0EBE1BBE4E08D
:1001CE00E2BBE7E050D2DC9AAD9A00E002300CF0D0
:1001DE0040C04FD211F4DE9801C0DE9A50D211F415
:1001EE00DF9801C0DF9A51D211F4949801C0949A0D
:1001FE0030FD02C0959801C0959A20E013E01030B2
:10020E00E4F04AD211F4DD9801C0DD9A10FD02C06F
:10021E00AE9801C0AE9ADC9848D2E0E08699E1E053
:10022E00EA2B2E2FDC9AAEE1B0E0F0D3869B03C012
:10023E00E0E00C942F031150E2CFAEE1B0E0E6D334
:10024E00321719F0E0E00C942F03EFE03E270F5F1A
:10025E00BDCF39E020E000E00230D4F50AD211F42F
:10026E00AF9801C0AF9A0BD211F4C09801C0C09ADA
:10027E000CD211F4C19801C0C19A30FD02C0C298CF
:10028E0001C0C29A20E013E01030CCF005D211F478
:10029E00DD9801C0DD9A10FD02C0AE9801C0AE9A85
:1002AE00AD9803D2E0E0B399E1E0EA2B2E2F04D211
:1002BE00B39B03C0E0E00C942F031150E5CF32172F
:1002CE0019F0E0E00C942F03EFE03E270F5FC4CF50
:1002DE00AC98E1E00C942F03F3D1E0E8FAD10430AE
:1002EE008CF505D211F4DE9801C0DE9A00FD02C035
:1002FE00AF9801C0AF9A10E01230D4F4103011F460
:10030E00DC9801C0DC9A103011F0AD9801C0AD9AA6
:10031E00DD98AE98F5D112D211F0E0E0E7C01AD216
:10032E000DD211F0E0E0E2C0DD9AAD9A1F5FE4CF8E
:10033E00E7D111F0E0E0DAC00DD211F0E0E0D6C066
:10034E000F5FCDCFD1C0BCD1E2E8C3D10430B4F53C
:10035E00CED111F4DE9801C0DE9A00FD02C0AF9836
:10036E0001C0AF9A10E01230F4F4103011F4DC98A2
:10037E0001C0DC9A103011F0AD9801C0AD9ADD9835
:10038E00AE9806D2DBD111F0E0E0B0C0E3D1D6D109
:10039E0011F0E0E0ABC004D2AAE0B0E037D3DD9AB2
:1003AE00AE9A1F5FE0CFF4D111F0E0E09FC0D2D142
:1003BE0011F0E0E09BC0F4D10F5FC8CF95C0F8D12B
:1003CE0003D20DD212300CF516D211F4AE9801C034
:1003DE00AE9A17D211F4C19801C0C19A18D211F475
:1003EE00949801C0949A00FD02C0DD9801C0DD9A78
:1003FE0015D211F0E0E07AC05FD136D211F0E0E014
:10040E0075C0EFE00E271F5FDDCF53D212300CF513
:10041E00F2D111F4AF9801C0AF9AF3D111F4C29892
:10042E0001C0C29AF4D111F4959801C0959A00FDBD
:10043E0002C0DE9801C0DE9AF1D111F0E0E056C0A4
:10044E003BD112D211F0E0E051C0EFE00E271F5F5A
:10045E00DDCF4AC0ADD1B8D1C2D112300CF5CBD15F
:10046E0011F4AE9801C0AE9ACCD111F4C19801C06E
:10047E00C19ACDD111F4949801C0949A00FD02C096
:10048E00DD9801C0DD9A21D211F0E0E02FC014D129
:10049E0042D211F0E0E02AC0EFE00E271F5FDDCF61
:1004AE0008D212300CF5A7D111F4AF9801C0AF9A53
:1004BE00A8D111F4C29801C0C29AA9D111F495988D
:1004CE0001C0959A00FD02C0DE9801C0DE9AFDD1F2
:1004DE0011F0E0E00BC0F0D01ED211F0E0E006C04B
:1004EE00EFE00E271F5FDDCFAC98E1E00991199187
:1004FE0008955ED23EEFE0E0EABBEBBBEFE7E4BB74
:10050E00E0E0E5BBE7BBE8BBE0E8E1BBE2B3EF70E0
:10051E00E2BBDF98A89AAD98AE9821E000E00031DA
:10052E000CF07CC0073011F421E076C0E02FE870AB
:10053E00F0E0E7FDFFEF63D2E03011F4AC9801C0BC
:10054E00AC9AE02FE470F0E0E7FDFFEF5AD2E03016
:10055E0011F4AB9801C0AB9ACAD011F4AA9801C09D
:10056E00AA9A00FD02C0A99801C0A99AA2E3B0E020
:10057E004DD2A0E0CF9BA1E0F3D1A0E0CE9BA1E0B5
:10058E00F5D1A0E0CD9BA1E0F8D1A0E0CC9BA1E0FD
:10059E00FAD1A0E0CB9BA1E0FBD1A0E0CA9BA1E0E9
:1005AE00FDD1A0E0C99BA1E0FED1E0E0C89BE1E057
:1005BE00EA0F5E2FA0E09F9BA1E0D2D1A0E0B09BFE
:1005CE00A1E0D4D1A0E0B19BA1E0D7D1A0E0B29B35
:1005DE00A1E0D9D1A0E0B39BA1E0DAD1A0E0869B47
:1005EE00A1E0DCD1A0E0859BA1E0DDD1E0E0849B21
:1005FE00E1E0EA0F4E2F251711F408300CF002C07F
:10060E00220F0AC0241731F4E02FE750A1E0DED10B
:10061E002E2F02C0E0E004C00F5F81CFA898E1E06A
:10062E00CED126960895AA935D9BFECFE881ECB9B4
:10063E0021960895BFD19D01D9012F5F3F4FEC91B7
:10064E001E2FE03019F0A12FEEDFF6CFAAE0EBDF80
:10065E00B8D124960895EABBE0E0EBBBE0EFE4BB33
:10066E00E0E0E5BB0895E7BBE0E0E8BBDF98AC9ABD
:10067E000895E32FE870F0E0C2D1E0300895E32F43
:10068E00E470F0E0BED1E0300895E32FE270F0E0C8
:10069E00F595E795E0300895E12FE270F0E0E7FD83
:1006AE00FFEFF595E795E0300895AEE1B0E0AED1FD
:1006BE00E22FEE0FAE2F0895AD9AAEE1B0E0A6C1D7
:1006CE001A930A93E0E7EABBE0E0E7BBE0EFE4BB96
:1006DE000895E1BBE0E0EBBBE5BBE4E0E2BBE0E0AC
:1006EE00E8BBDF98AC9ADD9AAE9A00E00895E02F51
:1006FE00E270F0E0E7FDFFEFF595E795E030089545
:10070E00AEE1B0E083D1A0E0CF9BA1E0EA2FEE0FE7
:10071E00EE0FEE0F0E2EA0E0849BA1E0EA2FEE0F5F
:10072E00EE0F0E0EA0E0859BA1E0EA2FEE0FA02D9E
:10073E00AE0FE0E0869BE1E0EA0F08956E2FA12F49
:10074E00B0E0A7FDBFEFE02F49D1A62FB0E0EA172A
:10075E00FB070895AEE1B0E059D1A0E0B09BA1E057
:10076E00EA2FEE0FEE0FEE0F0E2EA0E0B19BA1E0E2
:10077E00EA2FEE0FEE0F0E0EA0E0B29BA1E0EA2FD5
:10078E00EE0FA02DAE0FE0E0B39BE1E0EA0F08956F
:10079E00DF9AE2B3E067E2BBE8B3EF60E8BBB0CF4D
:1007AE00DF98E2B3EF78E2BBE8B3E07FE8BB0895F1
:1007BE001A930A9305E0E0E0EBBBE5BBE4E0E2BB95
:1007CE00E0E0E8BBE0E747CFE1B3EF70E1BBE1B3B8
:1007DE00E06BE1BBE2B3EF70E2BBE6E044CFAD9A73
:1007EE00DD98DE9894989598AE98AF98C198C29877
:1007FE00DC9810E00895E02FE870F0E000D1E030D2
:10080E000895E02FE470F0E0FCD0E0300895E02F82
:10081E00E270F0E0F595E795E0300895AD98AEE121
:10082E00B0E0F4D0A0E0B099A1E0EA2FEE0FEE0F09
:10083E00EE0F0E2EA0E0B399A1E0EA2FEE0FEE0F11
:10084E000E0EA0E08699A1E0EA2FEE0FA02DAE0FBE
:10085E00E0E0CF99E1E0AE0FE02FB0E0A7FDBFEFF3
:10086E00F0E0EA17FB070895A0E0B099A1E0E0E000
:10087E00EA17E1E009F4EE270E2EA0E0B399A1E00D
:10088E00E0E0EA17E1E009F4EE270E22A0E08699F7
:10089E00A1E0E0E0EA17E1E009F4EE270E22A0E085
:1008AE00CF99A1E0E0E0EA17E1E009F4EE27E021BC
:1008BE00089505E0DD98DE9894989598AE98AF98D7
:1008CE00C198C298DC9A10E00895AD98AEE1B0E000
:1008DE009DD0A0E0B09BA1E0EA2FEE0FEE0FEE0F41
:1008EE000E2EA0E0B39BA1E0EA2FEE0FEE0F0E0E40
:1008FE00A0E0869BA1E0EA2FEE0FA02DAE0FE0E068
:10090E00CF9BE1E0AE0FE02FB0E0A7FDBFEFF0E030
:10091E00EA17FB070895A0E0B09BA1E0E0E0EA171C
:10092E00E1E009F4EE270E2EA0E0B39BA1E0E0E09B
:10093E00EA17E1E009F4EE270E22A0E0869BA1E083
:10094E00E0E0EA17E1E009F4EE270E22A0E0CF9BEB
:10095E00A1E0E0E0EA17E1E009F4EE27E0210895D6
:10096E00EA2FE795E0E0E7950E2E0895EA2FE2953F
:10097E00E07FEE0FEE0F0E0E0895EA2FE295E07F68
:10098E00EE0F0E0E0895EA2FE295E07F0E0E0895FB
:10099E00EA2FEE0FEE0FEE0F0E0E0895EA2FEE0F6A
:1009AE00EE0F0E0E0895EA2FEE0FA02DAE0F089546
:1009BE005A934A933A932A931A930A9308955D8110
:1009CE004C813B812A81198108810895EE230E2ED8
:1009DE00EA2F19F0EE0F0A94E9F70895EE230E2E82
:1009EE00E8E01E2EFD0151F0011420F0FE2FE0E094
:1009FE00011821F0EE0FFF1F0A94E1F70895F59507
:100A0E00E795F595E795F595E7950895109639F0E4
:100A1E00A89580ED97E00197F1F71197C9F7089522
:00000001FF
