:080000000C942A000C9400008E
:100008000C9400000C9400000C9400000C94000068
:100018000C9400000C9400000C9400000C94000058
:100028000C9400000C9400000C9400000C94000048
:100038000C9400000C9400000C9400000C94000038
:100048000C9400000C9400000C940000F894EE2727
:10005800ECBBF1E0FBBFEBBFE5BF8DE0A2E0BB2747
:10006800ED938A95E9F780E094E0A0E6ED93019797
:10007800E9F7EFE5EDBFE4E0EEBFC0E6D1E00C94B0
:100088004500E2E8E1BBE4E0E2BB9198AEE1B0E014
:10009800CDD082990EC022970ED0F0E0E883F98384
:1000A800AEE1B0E0C3D0A881B981119709F4919A63
:1000B8002296ECCFFFCF1A930A93E0E7EABBE0E081
:1000C800E7BBE0EFE4BBE2E8E1BB9798AC9ADD9AC6
:1000D800AE9A00E00430ECF5E02FE270F0E0E7FDC6
:1000E800FFEFF595E795E03011F4DE9801C0DE9A50
:1000F80000FD02C0AF9801C0AF9A10E01230F4F4CE
:10010800103011F4DC9801C0DC9A103011F0AD9871
:1001180001C0AD9ADD98AE9821D045D011F0E0E04D
:100128001AC04DD040D011F0E0E015C066D0AAE06A
:10013800B0E07CD0DD9AAE9A1F5FE0CF0FD011F00F
:10014800E0E009C03CD011F0E0E005C056D00F5FF8
:10015800C1CFAC98E1E0099119910895DF9AE2B313
:10016800E067E2BBE8B3EF60E8BBAEE1B0E05ED0C9
:10017800A0E0CF9BA1E0EA2FEE0FEE0FEE0F0E2EC0
:10018800A0E0849BA1E0EA2FEE0FEE0F0E0EA0E098
:10019800859BA1E0EA2FEE0FA02DAE0FE0E0869B35
:1001A800E1E0EA0F08956E2FA12FB0E0A7FDBFEFA1
:1001B800E02F2BD0A62FB0E0EA17FB070895AEE199
:1001C800B0E034D0A0E0B09BA1E0EA2FEE0FEE0F34
:1001D800EE0F0E2EA0E0B19BA1E0EA2FEE0FEE0F7E
:1001E8000E0EA0E0B29BA1E0EA2FEE0FA02DAE0FFD
:1001F800E0E0B39BE1E0EA0F0895DF98E2B3EF781F
:10020800E2BBE8B3E07FE8BB0895EE230E2EE8E0FA
:100218001E2EFD0151F0011420F0FE2FE0E0011820
:1002280021F0EE0FFF1F0A94E1F70895109639F0B8
:10023800A89580ED97E00197F1F71197C9F7089510
:00000001FF
