:0A0000000C942A000C9400000C94EC
:10000A0000000C9400000C9400000C9400000C9466
:10001A0000000C9400000C9400000C9400000C9456
:10002A0000000C9400000C9400000C9400000C9446
:10003A0000000C9400000C9400000C9400000C9436
:10004A0000000C9400000C940000F894EE27ECBB1E
:10005A00F1E0FBBFEBBFE5BF8DE0A2E0BB27ED936C
:10006A008A95E9F780E094E0A0E6ED930197E9F735
:10007A00EFE5EDBFE4E0EEBFC0E6D1E00C94450049
:10008A00E2E8E1BBE4E0E2BB9198AEE1B0E0B6D0D1
:10009A0082990BC022970BD0F0E0E883F983A881FC
:1000AA00B981119709F4919A2296EFCFFFCF1A934B
:1000BA000A93E0E7EABBE0E0E7BBE0EFE4BBE2E893
:1000CA00E1BB9798AC9ADD9AAE9A00E00430C4F589
:1000DA00E02FE270F0E0E7FDFFEFF595E795E030FD
:1000EA0011F4DE9801C0DE9A00FD02C0AF9801C08B
:1000FA00AF9A10E01230D4F4103011F4DC9801C039
:10010A00DC9A103011F0AD9801C0AD9ADD98AE9826
:10011A001CD039D011F0E0E015C041D034D011F034
:10012A00E0E010C0DD9AAD9A1F5FE4CF0ED011F067
:10013A00E0E008C034D011F0E0E004C00F5FC6CFA1
:10014A00AC98E1E0099119910895AEE1B0E056D07A
:10015A00A0E0CF9BA1E0EA2FEE0FEE0FEE0F0E2EDE
:10016A00A0E0849BA1E0EA2FEE0FEE0F0E0EA0E0B6
:10017A00859BA1E0EA2FEE0FA02DAE0FE0E0869B53
:10018A00E1E0EA0F08956E2FA12FB0E0A7FDBFEFBF
:10019A00E02F23D0A62FB0E0EA17FB070895AEE1BF
:1001AA00B0E02CD0A0E0B09BA1E0EA2FEE0FEE0F5A
:1001BA00EE0F0E2EA0E0B19BA1E0EA2FEE0FEE0F9C
:1001CA000E0EA0E0B29BA1E0EA2FEE0FA02DAE0F1B
:1001DA00E0E0B39BE1E0EA0F0895EE230E2EE8E09B
:1001EA001E2EFD0151F0011420F0FE2FE0E001184F
:1001FA0021F0EE0FFF1F0A94E1F70895109639F0E7
:10020A00A89580ED97E00197F1F71197C9F708953E
:00000001FF
