:100000000C942A000C9400000C9400000C94000046
:100010000C9400000C9400000C9400000C94000060
:100020000C9400000C9400000C9400000C94000050
:100030000C9400000C9400000C9400000C94000040
:100040000C9400000C9400000C9400000C94000030
:100050000C940000F894EE27ECBBF1E0FBBFEBBF83
:10006000E5BF8DE0A2E0BB27ED938A95E9F780E03C
:1000700094E0A0E6ED930197E9F7EFE5EDBFE4E04A
:10008000EEBFC0E6D1E00C944500E2E0E1BBE4E065
:10009000E2BB919882990BC022970BD0F0E0E883E5
:1000A000F983A881B981119709F4919A2296F2CF28
:1000B000FFCFC7D03EEFE0E0EABBEBBBEFE7E4BB2E
:1000C000E0E0E5BBE7BBE8BBE2E8E1BBE2B3EF7031
:1000D000E2BB9798A89AAD98AE9821E000E0003175
:1000E0000CF083C0073011F421E07DC0E02FE870F0
:1000F000F0E0E7FDFFEFBBD0E03011F4AC9801C0B9
:10010000AC9AE02FE470F0E0E7FDFFEFB2D0E03012
:1001100011F4AB9801C0AB9AE02FE270F0E0E7FD7C
:10012000FFEFF595E795E03011F4AA9801C0AA9A7F
:1001300000FD02C0A99801C0A99AA2E3B0E09ED038
:10014000A0E0CF9BA1E055D0A0E0CE9BA1E057D08E
:10015000A0E0CD9BA1E05AD0A0E0CC9BA1E05CD078
:10016000A0E0CB9BA1E05DD0A0E0CA9BA1E05FD066
:10017000A0E0C99BA1E060D0E0E0C89BE1E0EA0F0D
:100180005E2FA0E09F9BA1E034D0A0E0B09BA1E057
:1001900036D0A0E0B19BA1E039D0A0E0B29BA1E0B5
:1001A0003BD0A0E0B39BA1E03CD0A0E0869BA1E0C7
:1001B0003ED0A0E0859BA1E03FD0E0E0849BE1E061
:1001C000EA0F4E2F251711F408300CF002C0220F51
:1001D0000AC0241731F4E02FE750A1E040D02E2FC1
:1001E00002C0E0E003C00F5F7ACFE1E031D0269695
:1001F0000895EA2FE795E0E0E7950E2E0895EA2F9F
:10020000E295E07FEE0FEE0F0E0E0895EA2FE295D5
:10021000E07FEE0F0E0E0895EA2FE295E07F0E0EBE
:100220000895EA2FEE0FEE0FEE0F0E0E0895EA2F4F
:10023000EE0FEE0F0E0E0895EA2FEE0FA02DAE0F6B
:1002400008955A934A933A932A931A930A930895D6
:100250005D814C813B812A81198108810895EE23BB
:100260000E2EEA2F19F0EE0F0A94E9F70895F5958E
:10027000E795F595E795F595E7950895109639F08A
:10028000A89580ED97E00197F1F71197C9F70895C8
:00000001FF
